{
  "contractName": "DatabaseContract",
  "abi": [
    {
      "inputs": [],
      "stateMutability": "nonpayable",
      "type": "constructor"
    },
    {
      "inputs": [
        {
          "internalType": "uint256",
          "name": "",
          "type": "uint256"
        }
      ],
      "name": "addresses",
      "outputs": [
        {
          "internalType": "address",
          "name": "",
          "type": "address"
        }
      ],
      "stateMutability": "view",
      "type": "function"
    },
    {
      "inputs": [],
      "name": "index",
      "outputs": [
        {
          "internalType": "uint256",
          "name": "",
          "type": "uint256"
        }
      ],
      "stateMutability": "view",
      "type": "function"
    },
    {
      "inputs": [
        {
          "internalType": "uint256",
          "name": "",
          "type": "uint256"
        }
      ],
      "name": "names",
      "outputs": [
        {
          "internalType": "string",
          "name": "",
          "type": "string"
        }
      ],
      "stateMutability": "view",
      "type": "function"
    },
    {
      "inputs": [],
      "name": "user_address",
      "outputs": [
        {
          "internalType": "address",
          "name": "",
          "type": "address"
        }
      ],
      "stateMutability": "view",
      "type": "function"
    },
    {
      "inputs": [],
      "name": "user_name",
      "outputs": [
        {
          "internalType": "string",
          "name": "",
          "type": "string"
        }
      ],
      "stateMutability": "view",
      "type": "function"
    },
    {
      "inputs": [
        {
          "internalType": "string",
          "name": "name",
          "type": "string"
        },
        {
          "internalType": "address",
          "name": "u_address",
          "type": "address"
        }
      ],
      "name": "addUser",
      "outputs": [],
      "stateMutability": "nonpayable",
      "type": "function"
    },
    {
      "inputs": [],
      "name": "getUser",
      "outputs": [
        {
          "internalType": "string[]",
          "name": "",
          "type": "string[]"
        }
      ],
      "stateMutability": "view",
      "type": "function"
    }
  ],
  "bytecode": "0x6080604052600060025534801561001557600080fd5b50610bab806100256000396000f3fe608060405234801561001057600080fd5b506004361061007d5760003560e01c8063832880e71161005b578063832880e7146100ee578063864a0d0a1461010c5780639fbb204114610128578063edf26d9b146101465761007d565b80630ef322a9146100825780632986c0e5146100a05780634622ab03146100be575b600080fd5b61008a610176565b60405161009791906105ff565b60405180910390f35b6100a861019a565b6040516100b59190610633565b60405180910390f35b6100d860048036038101906100d3919061068e565b6101a0565b6040516100e59190610754565b60405180910390f35b6100f661024c565b6040516101039190610882565b60405180910390f35b61012660048036038101906101219190610a05565b610325565b005b61013061044e565b60405161013d9190610754565b60405180910390f35b610160600480360381019061015b919061068e565b6104dc565b60405161016d91906105ff565b60405180910390f35b60008054906101000a900473ffffffffffffffffffffffffffffffffffffffff1681565b60025481565b600381815481106101b057600080fd5b9060005260206000200160009150905080546101cb90610a90565b80601f01602080910402602001604051908101604052809291908181526020018280546101f790610a90565b80156102445780601f1061021957610100808354040283529160200191610244565b820191906000526020600020905b81548152906001019060200180831161022757829003601f168201915b505050505081565b60606003805480602002602001604051908101604052809291908181526020016000905b8282101561031c57838290600052602060002001805461028f90610a90565b80601f01602080910402602001604051908101604052809291908181526020018280546102bb90610a90565b80156103085780601f106102dd57610100808354040283529160200191610308565b820191906000526020600020905b8154815290600101906020018083116102eb57829003601f168201915b505050505081526020019060010190610270565b50505050905090565b806000806101000a81548173ffffffffffffffffffffffffffffffffffffffff021916908373ffffffffffffffffffffffffffffffffffffffff160217905550816001908051906020019061037b92919061051b565b508160036002548154811061039357610392610ac1565b5b9060005260206000200190805190602001906103b092919061051b565b5060008054906101000a900473ffffffffffffffffffffffffffffffffffffffff166004600254815481106103e8576103e7610ac1565b5b9060005260206000200160006101000a81548173ffffffffffffffffffffffffffffffffffffffff021916908373ffffffffffffffffffffffffffffffffffffffff1602179055506001600260008282546104439190610b1f565b925050819055505050565b6001805461045b90610a90565b80601f016020809104026020016040519081016040528092919081815260200182805461048790610a90565b80156104d45780601f106104a9576101008083540402835291602001916104d4565b820191906000526020600020905b8154815290600101906020018083116104b757829003601f168201915b505050505081565b600481815481106104ec57600080fd5b906000526020600020016000915054906101000a900473ffffffffffffffffffffffffffffffffffffffff1681565b82805461052790610a90565b90600052602060002090601f0160209004810192826105495760008555610590565b82601f1061056257805160ff1916838001178555610590565b82800160010185558215610590579182015b8281111561058f578251825591602001919060010190610574565b5b50905061059d91906105a1565b5090565b5b808211156105ba5760008160009055506001016105a2565b5090565b600073ffffffffffffffffffffffffffffffffffffffff82169050919050565b60006105e9826105be565b9050919050565b6105f9816105de565b82525050565b600060208201905061061460008301846105f0565b92915050565b6000819050919050565b61062d8161061a565b82525050565b60006020820190506106486000830184610624565b92915050565b6000604051905090565b600080fd5b600080fd5b61066b8161061a565b811461067657600080fd5b50565b60008135905061068881610662565b92915050565b6000602082840312156106a4576106a3610658565b5b60006106b284828501610679565b91505092915050565b600081519050919050565b600082825260208201905092915050565b60005b838110156106f55780820151818401526020810190506106da565b83811115610704576000848401525b50505050565b6000601f19601f8301169050919050565b6000610726826106bb565b61073081856106c6565b93506107408185602086016106d7565b6107498161070a565b840191505092915050565b6000602082019050818103600083015261076e818461071b565b905092915050565b600081519050919050565b600082825260208201905092915050565b6000819050602082019050919050565b600082825260208201905092915050565b60006107be826106bb565b6107c881856107a2565b93506107d88185602086016106d7565b6107e18161070a565b840191505092915050565b60006107f883836107b3565b905092915050565b6000602082019050919050565b600061081882610776565b6108228185610781565b93508360208202850161083485610792565b8060005b85811015610870578484038952815161085185826107ec565b945061085c83610800565b925060208a01995050600181019050610838565b50829750879550505050505092915050565b6000602082019050818103600083015261089c818461080d565b905092915050565b600080fd5b600080fd5b7f4e487b7100000000000000000000000000000000000000000000000000000000600052604160045260246000fd5b6108e68261070a565b810181811067ffffffffffffffff82111715610905576109046108ae565b5b80604052505050565b600061091861064e565b905061092482826108dd565b919050565b600067ffffffffffffffff821115610944576109436108ae565b5b61094d8261070a565b9050602081019050919050565b82818337600083830152505050565b600061097c61097784610929565b61090e565b905082815260208101848484011115610998576109976108a9565b5b6109a384828561095a565b509392505050565b600082601f8301126109c0576109bf6108a4565b5b81356109d0848260208601610969565b91505092915050565b6109e2816105de565b81146109ed57600080fd5b50565b6000813590506109ff816109d9565b92915050565b60008060408385031215610a1c57610a1b610658565b5b600083013567ffffffffffffffff811115610a3a57610a3961065d565b5b610a46858286016109ab565b9250506020610a57858286016109f0565b9150509250929050565b7f4e487b7100000000000000000000000000000000000000000000000000000000600052602260045260246000fd5b60006002820490506001821680610aa857607f821691505b602082108103610abb57610aba610a61565b5b50919050565b7f4e487b7100000000000000000000000000000000000000000000000000000000600052603260045260246000fd5b7f4e487b7100000000000000000000000000000000000000000000000000000000600052601160045260246000fd5b6000610b2a8261061a565b9150610b358361061a565b9250827fffffffffffffffffffffffffffffffffffffffffffffffffffffffffffffffff03821115610b6a57610b69610af0565b5b82820190509291505056fea2646970667358221220f72b9242c66572aa4dfb93dc0c8d4f40765d203921723ba485bc3c8a9f15192264736f6c634300080d0033",
  "immutableReferences": {},
  "source": "// SPDX-License-Identifier: MIT\r\npragma solidity >=0.4.22 <0.9.0;\r\n\r\ncontract DatabaseContract\r\n{\r\n\r\n   address public user_address;\r\n   string public user_name;\r\n   uint256 public index = 0;\r\n\r\n   string [] public names; \r\n   address [] public addresses ; \r\n\r\n   constructor ()\r\n   {\r\n       //do stuff\r\n   }\r\n\r\n   function addUser (string memory name, address u_address) public\r\n   {\r\n       user_address = u_address;\r\n       user_name = name;\r\n\r\n       names[index] = name;\r\n       addresses[index] = user_address;\r\n\r\n       index += 1;\r\n   }\r\n\r\n   function getUser () public view returns (string [] memory)\r\n   {\r\n       return names;\r\n   }\r\n\r\n}",
  "sourcePath": "C:\\DApp\\ethersmartcontract\\contracts\\DatabaseContract.sol",
  "compiler": {
    "name": "solc",
    "version": "0.8.13+commit.abaa5c0e.Emscripten.clang"
  },
  "schemaVersion": "3.4.7",
  "updatedAt": "2007-01-01T09:44:29.147Z",
  "devdoc": {
    "kind": "dev",
    "methods": {},
    "version": 1
  },
  "userdoc": {
    "kind": "user",
    "methods": {},
    "version": 1
  }
}